{
  "contractName": "Finisher",
  "abi": [
    {
      "inputs": [],
      "payable": false,
      "stateMutability": "nonpayable",
      "type": "constructor"
    },
    {
      "anonymous": false,
      "inputs": [
        {
          "indexed": false,
          "internalType": "string",
          "name": "offchainid",
          "type": "string"
        },
        {
          "indexed": false,
          "internalType": "address",
          "name": "owner",
          "type": "address"
        }
      ],
      "name": "MedalCreated",
      "type": "event"
    },
    {
      "anonymous": false,
      "inputs": [
        {
          "indexed": false,
          "internalType": "address",
          "name": "owner",
          "type": "address"
        },
        {
          "indexed": false,
          "internalType": "string",
          "name": "offchainid",
          "type": "string"
        },
        {
          "indexed": false,
          "internalType": "string",
          "name": "result",
          "type": "string"
        }
      ],
      "name": "MedalVerified",
      "type": "event"
    },
    {
      "constant": false,
      "inputs": [
        {
          "internalType": "uint256",
          "name": "_medalcost",
          "type": "uint256"
        }
      ],
      "name": "setMedalCost",
      "outputs": [],
      "payable": false,
      "stateMutability": "nonpayable",
      "type": "function"
    },
    {
      "constant": true,
      "inputs": [],
      "name": "getMedalCost",
      "outputs": [
        {
          "internalType": "uint256",
          "name": "",
          "type": "uint256"
        }
      ],
      "payable": false,
      "stateMutability": "view",
      "type": "function"
    },
    {
      "constant": false,
      "inputs": [
        {
          "internalType": "string",
          "name": "_offchainid",
          "type": "string"
        },
        {
          "internalType": "bytes32",
          "name": "_checkhash",
          "type": "bytes32"
        }
      ],
      "name": "createMedal",
      "outputs": [],
      "payable": false,
      "stateMutability": "nonpayable",
      "type": "function"
    },
    {
      "constant": true,
      "inputs": [
        {
          "internalType": "string",
          "name": "_offchainid",
          "type": "string"
        }
      ],
      "name": "getMedal",
      "outputs": [
        {
          "components": [
            {
              "internalType": "bytes32",
              "name": "checkhash",
              "type": "bytes32"
            },
            {
              "internalType": "uint256",
              "name": "distributed",
              "type": "uint256"
            },
            {
              "internalType": "address",
              "name": "owner",
              "type": "address"
            }
          ],
          "internalType": "struct Finisher.Medal",
          "name": "",
          "type": "tuple"
        }
      ],
      "payable": false,
      "stateMutability": "view",
      "type": "function"
    },
    {
      "constant": true,
      "inputs": [
        {
          "internalType": "string",
          "name": "_offchainid",
          "type": "string"
        }
      ],
      "name": "getResultForMedal",
      "outputs": [
        {
          "components": [
            {
              "internalType": "string",
              "name": "result",
              "type": "string"
            },
            {
              "internalType": "bool",
              "name": "isSet",
              "type": "bool"
            }
          ],
          "internalType": "struct Finisher.MedalOwned",
          "name": "",
          "type": "tuple"
        }
      ],
      "payable": false,
      "stateMutability": "view",
      "type": "function"
    },
    {
      "constant": false,
      "inputs": [
        {
          "internalType": "string",
          "name": "_offchainid",
          "type": "string"
        },
        {
          "internalType": "string",
          "name": "_endpoint",
          "type": "string"
        }
      ],
      "name": "claimMedal",
      "outputs": [],
      "payable": true,
      "stateMutability": "payable",
      "type": "function"
    }
  ],
  "bytecode": "0x608060405234801561001057600080fd5b5033600160006101000a81548173ffffffffffffffffffffffffffffffffffffffff021916908373ffffffffffffffffffffffffffffffffffffffff16021790555066071afd498d0000600281905550610e4e8061006f6000396000f3fe6080604052600436106100555760003560e01c8063039b2d8c1461005a578063115fc3bf1461009757806333b84e39146100c05780637553cd81146100dc57806388238780146101055780638a50c7f514610142575b600080fd5b34801561006657600080fd5b50610081600480360361007c919081019061081c565b61016d565b60405161008e9190610c0e565b60405180910390f35b3480156100a357600080fd5b506100be60048036036100b9919081019061091d565b61029f565b005b6100da60048036036100d591908101906108b1565b610339565b005b3480156100e857600080fd5b5061010360048036036100fe919081019061085d565b61050c565b005b34801561011157600080fd5b5061012c6004803603610127919081019061081c565b6105f7565b6040516101399190610c30565b60405180910390f35b34801561014e57600080fd5b50610157610699565b6040516101649190610c4b565b60405180910390f35b6101756106a3565b600360003373ffffffffffffffffffffffffffffffffffffffff1673ffffffffffffffffffffffffffffffffffffffff168152602001908152602001600020826040516101c29190610b42565b9081526020016040518091039020604051806040016040529081600082018054600181600116156101000203166002900480601f0160208091040260200160405190810160405280929190818152602001828054600181600116156101000203166002900480156102745780601f1061024957610100808354040283529160200191610274565b820191906000526020600020905b81548152906001019060200180831161025757829003601f168201915b505050505081526020016001820160009054906101000a900460ff1615151515815250509050919050565b600160009054906101000a900473ffffffffffffffffffffffffffffffffffffffff1673ffffffffffffffffffffffffffffffffffffffff163373ffffffffffffffffffffffffffffffffffffffff161461032f576040517f08c379a000000000000000000000000000000000000000000000000000000000815260040161032690610bee565b60405180910390fd5b8060028190555050565b600360003373ffffffffffffffffffffffffffffffffffffffff1673ffffffffffffffffffffffffffffffffffffffff168152602001908152602001600020826040516103869190610b42565b908152602001604051809103902060010160009054906101000a900460ff16156103e5576040517f08c379a00000000000000000000000000000000000000000000000000000000081526004016103dc90610bce565b60405180910390fd5b60405180604001604052806040518060400160405280600681526020017f726573756c740000000000000000000000000000000000000000000000000000815250815260200160011515815250600360003373ffffffffffffffffffffffffffffffffffffffff1673ffffffffffffffffffffffffffffffffffffffff1681526020019081526020016000208360405161047f9190610b42565b908152602001604051809103902060008201518160000190805190602001906104a99291906106bf565b5060208201518160010160006101000a81548160ff0219169083151502179055509050507fd488552a9a082872bc0bb164cd29412d4d1c0eaca9e2f9b201f67bd37cde3be833838360405161050093929190610b59565b60405180910390a15050565b6040518060600160405280828152602001600081526020013373ffffffffffffffffffffffffffffffffffffffff1681525060008360405161054e9190610b42565b9081526020016040518091039020600082015181600001556020820151816001015560408201518160020160006101000a81548173ffffffffffffffffffffffffffffffffffffffff021916908373ffffffffffffffffffffffffffffffffffffffff1602179055509050507f174406307f5de2519d057dc26c7b30839e1f184cf63e8ea22ad302df6df800f982336040516105eb929190610b9e565b60405180910390a15050565b6105ff61073f565b60008260405161060f9190610b42565b908152602001604051809103902060405180606001604052908160008201548152602001600182015481526020016002820160009054906101000a900473ffffffffffffffffffffffffffffffffffffffff1673ffffffffffffffffffffffffffffffffffffffff1673ffffffffffffffffffffffffffffffffffffffff16815250509050919050565b6000600254905090565b6040518060400160405280606081526020016000151581525090565b828054600181600116156101000203166002900490600052602060002090601f016020900481019282601f1061070057805160ff191683800117855561072e565b8280016001018555821561072e579182015b8281111561072d578251825591602001919060010190610712565b5b50905061073b9190610779565b5090565b60405180606001604052806000801916815260200160008152602001600073ffffffffffffffffffffffffffffffffffffffff1681525090565b61079b91905b8082111561079757600081600090555060010161077f565b5090565b90565b6000813590506107ad81610ddd565b92915050565b600082601f8301126107c457600080fd5b81356107d76107d282610c93565b610c66565b915080825260208301602083018583830111156107f357600080fd5b6107fe838284610d8a565b50505092915050565b60008135905061081681610df4565b92915050565b60006020828403121561082e57600080fd5b600082013567ffffffffffffffff81111561084857600080fd5b610854848285016107b3565b91505092915050565b6000806040838503121561087057600080fd5b600083013567ffffffffffffffff81111561088a57600080fd5b610896858286016107b3565b92505060206108a78582860161079e565b9150509250929050565b600080604083850312156108c457600080fd5b600083013567ffffffffffffffff8111156108de57600080fd5b6108ea858286016107b3565b925050602083013567ffffffffffffffff81111561090757600080fd5b610913858286016107b3565b9150509250929050565b60006020828403121561092f57600080fd5b600061093d84828501610807565b91505092915050565b61094f81610d54565b82525050565b61095e81610d02565b82525050565b61096d81610d14565b82525050565b61097c81610d20565b82525050565b600061098d82610cca565b6109978185610ce6565b93506109a7818560208601610d99565b6109b081610dcc565b840191505092915050565b60006109c682610cca565b6109d08185610cf7565b93506109e0818560208601610d99565b80840191505092915050565b60006109f782610cbf565b610a018185610cd5565b9350610a11818560208601610d99565b610a1a81610dcc565b840191505092915050565b6000610a32601683610ce6565b91507f4d6564616c20616c726561647920636c61696d656421000000000000000000006000830152602082019050919050565b6000610a72600e83610ce6565b91507f4e6f7420617574686f72697a65640000000000000000000000000000000000006000830152602082019050919050565b60006040830160008301518482036000860152610ac282826109ec565b9150506020830151610ad76020860182610964565b508091505092915050565b606082016000820151610af86000850182610973565b506020820151610b0b6020850182610b24565b506040820151610b1e6040850182610955565b50505050565b610b2d81610d4a565b82525050565b610b3c81610d4a565b82525050565b6000610b4e82846109bb565b915081905092915050565b6000606082019050610b6e6000830186610946565b8181036020830152610b808185610982565b90508181036040830152610b948184610982565b9050949350505050565b60006040820190508181036000830152610bb88185610982565b9050610bc76020830184610946565b9392505050565b60006020820190508181036000830152610be781610a25565b9050919050565b60006020820190508181036000830152610c0781610a65565b9050919050565b60006020820190508181036000830152610c288184610aa5565b905092915050565b6000606082019050610c456000830184610ae2565b92915050565b6000602082019050610c606000830184610b33565b92915050565b6000604051905081810181811067ffffffffffffffff82111715610c8957600080fd5b8060405250919050565b600067ffffffffffffffff821115610caa57600080fd5b601f19601f8301169050602081019050919050565b600081519050919050565b600081519050919050565b600082825260208201905092915050565b600082825260208201905092915050565b600081905092915050565b6000610d0d82610d2a565b9050919050565b60008115159050919050565b6000819050919050565b600073ffffffffffffffffffffffffffffffffffffffff82169050919050565b6000819050919050565b6000610d5f82610d66565b9050919050565b6000610d7182610d78565b9050919050565b6000610d8382610d2a565b9050919050565b82818337600083830152505050565b60005b83811015610db7578082015181840152602081019050610d9c565b83811115610dc6576000848401525b50505050565b6000601f19601f8301169050919050565b610de681610d20565b8114610df157600080fd5b50565b610dfd81610d4a565b8114610e0857600080fd5b5056fea365627a7a723158208e5ff2f25a78a276ab323e207b2a6430508ddd151e513f47db0c477d49dbf0236c6578706572696d656e74616cf564736f6c63430005100040",
  "source": "//SPDX-License-Identifier: MIT\npragma solidity >= 0.5.0 < 0.7.0;\npragma experimental ABIEncoderV2;\n\n// import \"https://github.com/smartcontractkit/chainlink/evm-contracts/src/v0.4/ChainlinkClient.sol\";\n// import \"https://github.com/smartcontractkit/chainlink/evm-contracts/src/v0.4/vendor/Ownable.sol\";\n// import \"@openzeppelin/upgrades/contracts/Initializable.sol\";\n\ncontract Finisher{ // is Initializable {\n  struct MedalOwned { // structure to store medal relation to wallet with metadata\n    // uint medalid; // medal position in medalhashes and id off chain\n    // string resultid; // result id off chain\n    string result; // result value\n    bool isSet; // helper to check empty struct\n    // bytes32 checkhash; // result hash\n  }\n\n  struct Medal {\n    bytes32 checkhash; // keccak256 hash of the medal data stored offchain\n    // string offchainid; // offchain id of medal\n    // uint count; // how many medals are available\n    uint distributed; // number of distributed medals\n    address owner; // owner address\n  }\n\n  // event emitted on medal creation\n  event MedalCreated(string offchainid, address owner);\n\n  //event emitted on medal verification\n  event MedalVerified(address owner, string offchainid, string result);\n\n  mapping(string => Medal) medals; // registered medals mapped to offchainid\n  address payable owner; // contract owner address\n  uint256 medalcost; // medal cost\n\n  mapping(address => mapping(string => MedalOwned)) finishers; // mapping the medals to user address\n\n  // function initialize(uint _medalcost) public initializer {\n  //  medalcost = _medalcost;\n  // }\n  constructor() public {\n    owner = msg.sender;\n    medalcost = 2 finney;\n  }\n\n  function setMedalCost(uint256 _medalcost) public{\n    require(msg.sender == owner, \"Not authorized\");\n    medalcost = _medalcost;\n  }\n\n  function getMedalCost() public view returns(uint256){\n    return medalcost;\n  }\n\n  function createMedal(string memory _offchainid, bytes32 _checkhash) public{\n    // medals.push(Medal(_checkhash,_offchainid, 0, msg.sender));\n    medals[_offchainid] = Medal(_checkhash, 0, msg.sender);\n    emit MedalCreated(_offchainid, msg.sender); // medals.length-1);\n  }\n\n  function getMedal(string memory _offchainid) public view returns(Medal memory){\n    // require(_medalid < medals.length, \"Invalid index specified\");\n    return medals[_offchainid];\n  }\n\n  function getResultForMedal(string memory _offchainid) public view returns(MedalOwned memory){\n    return finishers[msg.sender][_offchainid];\n  }\n\n  function claimMedal(string memory _offchainid, string memory _endpoint) public payable{\n    //todo check price\n    require(!finishers[msg.sender][_offchainid].isSet, \"Medal already claimed!\");\n    finishers[msg.sender][_offchainid] = MedalOwned(\"result\", true);\n    emit MedalVerified(msg.sender, _offchainid, _endpoint);\n  }\n\n}\n",
  "sourcePath": "C:\\project\\finisher\\contracts\\Finisher.sol",
  "compiler": {
    "name": "solc",
    "version": "0.5.16+commit.9c3226ce.Emscripten.clang"
  },
  "schemaVersion": "3.2.0",
  "updatedAt": "2020-07-27T11:44:48.998Z",
  "networkType": "ethereum",
  "devdoc": {
    "methods": {}
  },
  "userdoc": {
    "methods": {}
  }
}