{
  "contractName": "Finisher",
  "abi": [
    {
      "inputs": [],
      "payable": false,
      "stateMutability": "nonpayable",
      "type": "constructor"
    },
    {
      "anonymous": false,
      "inputs": [
        {
          "indexed": false,
          "internalType": "string",
          "name": "offchainid",
          "type": "string"
        },
        {
          "indexed": false,
          "internalType": "address",
          "name": "owner",
          "type": "address"
        }
      ],
      "name": "MedalCreated",
      "type": "event"
    },
    {
      "anonymous": false,
      "inputs": [
        {
          "indexed": false,
          "internalType": "address",
          "name": "owner",
          "type": "address"
        },
        {
          "indexed": false,
          "internalType": "string",
          "name": "offchainid",
          "type": "string"
        },
        {
          "indexed": false,
          "internalType": "bytes32",
          "name": "result",
          "type": "bytes32"
        }
      ],
      "name": "MedalVerified",
      "type": "event"
    },
    {
      "constant": false,
      "inputs": [
        {
          "internalType": "uint256",
          "name": "_medalcost",
          "type": "uint256"
        }
      ],
      "name": "setMedalCost",
      "outputs": [],
      "payable": false,
      "stateMutability": "nonpayable",
      "type": "function"
    },
    {
      "constant": true,
      "inputs": [],
      "name": "getMedalCost",
      "outputs": [
        {
          "internalType": "uint256",
          "name": "",
          "type": "uint256"
        }
      ],
      "payable": false,
      "stateMutability": "view",
      "type": "function"
    },
    {
      "constant": false,
      "inputs": [
        {
          "internalType": "string",
          "name": "_offchainid",
          "type": "string"
        },
        {
          "internalType": "bytes32",
          "name": "_checkhash",
          "type": "bytes32"
        }
      ],
      "name": "createMedal",
      "outputs": [],
      "payable": false,
      "stateMutability": "nonpayable",
      "type": "function"
    },
    {
      "constant": true,
      "inputs": [
        {
          "internalType": "string",
          "name": "_offchainid",
          "type": "string"
        }
      ],
      "name": "getMedal",
      "outputs": [
        {
          "components": [
            {
              "internalType": "bytes32",
              "name": "checkhash",
              "type": "bytes32"
            },
            {
              "internalType": "uint256",
              "name": "distributed",
              "type": "uint256"
            },
            {
              "internalType": "address",
              "name": "owner",
              "type": "address"
            }
          ],
          "internalType": "struct Finisher.Medal",
          "name": "",
          "type": "tuple"
        }
      ],
      "payable": false,
      "stateMutability": "view",
      "type": "function"
    },
    {
      "constant": true,
      "inputs": [
        {
          "internalType": "string",
          "name": "_offchainid",
          "type": "string"
        }
      ],
      "name": "getResultForMedal",
      "outputs": [
        {
          "components": [
            {
              "internalType": "bytes32",
              "name": "result",
              "type": "bytes32"
            },
            {
              "internalType": "bool",
              "name": "isSet",
              "type": "bool"
            }
          ],
          "internalType": "struct Finisher.MedalOwned",
          "name": "",
          "type": "tuple"
        }
      ],
      "payable": false,
      "stateMutability": "view",
      "type": "function"
    },
    {
      "constant": false,
      "inputs": [
        {
          "internalType": "string",
          "name": "_offchainid",
          "type": "string"
        },
        {
          "internalType": "bytes32",
          "name": "_result",
          "type": "bytes32"
        },
        {
          "internalType": "uint8",
          "name": "v",
          "type": "uint8"
        },
        {
          "internalType": "bytes32",
          "name": "r",
          "type": "bytes32"
        },
        {
          "internalType": "bytes32",
          "name": "s",
          "type": "bytes32"
        }
      ],
      "name": "claimMedal",
      "outputs": [],
      "payable": true,
      "stateMutability": "payable",
      "type": "function"
    },
    {
      "constant": false,
      "inputs": [
        {
          "internalType": "uint256",
          "name": "withdraw",
          "type": "uint256"
        }
      ],
      "name": "withdrawEth",
      "outputs": [],
      "payable": false,
      "stateMutability": "nonpayable",
      "type": "function"
    },
    {
      "constant": true,
      "inputs": [],
      "name": "getBalance",
      "outputs": [
        {
          "internalType": "uint256",
          "name": "",
          "type": "uint256"
        }
      ],
      "payable": false,
      "stateMutability": "view",
      "type": "function"
    },
    {
      "constant": false,
      "inputs": [
        {
          "internalType": "address payable",
          "name": "newOwner",
          "type": "address"
        }
      ],
      "name": "transferOwnership",
      "outputs": [],
      "payable": false,
      "stateMutability": "nonpayable",
      "type": "function"
    }
  ],
  "bytecode": "0x608060405234801561001057600080fd5b5033600160006101000a81548173ffffffffffffffffffffffffffffffffffffffff021916908373ffffffffffffffffffffffffffffffffffffffff16021790555066071afd498d00006002819055506114188061006f6000396000f3fe6080604052600436106100865760003560e01c80637553cd81116100595780637553cd811461013857806388238780146101615780638a50c7f51461019e578063c311d049146101c9578063f2fde38b146101f257610086565b8063039b2d8c1461008b578063115fc3bf146100c857806312065fe0146100f15780634ba2f0381461011c575b600080fd5b34801561009757600080fd5b506100b260048036036100ad9190810190610bbc565b61021b565b6040516100bf9190611173565b60405180910390f35b3480156100d457600080fd5b506100ef60048036036100ea9190810190610ce0565b6102b5565b005b3480156100fd57600080fd5b5061010661034f565b60405161011391906111a9565b60405180910390f35b61013660048036036101319190810190610c51565b6103e7565b005b34801561014457600080fd5b5061015f600480360361015a9190810190610bfd565b61072b565b005b34801561016d57600080fd5b5061018860048036036101839190810190610bbc565b610816565b604051610195919061118e565b60405180910390f35b3480156101aa57600080fd5b506101b36108b8565b6040516101c091906111a9565b60405180910390f35b3480156101d557600080fd5b506101f060048036036101eb9190810190610ce0565b6108c2565b005b3480156101fe57600080fd5b5061021960048036036102149190810190610b93565b6109be565b005b610223610a92565b600360003373ffffffffffffffffffffffffffffffffffffffff1673ffffffffffffffffffffffffffffffffffffffff168152602001908152602001600020826040516102709190610fca565b9081526020016040518091039020604051806040016040529081600082015481526020016001820160009054906101000a900460ff1615151515815250509050919050565b600160009054906101000a900473ffffffffffffffffffffffffffffffffffffffff1673ffffffffffffffffffffffffffffffffffffffff163373ffffffffffffffffffffffffffffffffffffffff1614610345576040517f08c379a000000000000000000000000000000000000000000000000000000000815260040161033c90611153565b60405180910390fd5b8060028190555050565b6000600160009054906101000a900473ffffffffffffffffffffffffffffffffffffffff1673ffffffffffffffffffffffffffffffffffffffff163373ffffffffffffffffffffffffffffffffffffffff16146103e1576040517f08c379a00000000000000000000000000000000000000000000000000000000081526004016103d890611153565b60405180910390fd5b47905090565b600360003373ffffffffffffffffffffffffffffffffffffffff1673ffffffffffffffffffffffffffffffffffffffff168152602001908152602001600020856040516104349190610fca565b908152602001604051809103902060010160009054906101000a900460ff1615610493576040517f08c379a000000000000000000000000000000000000000000000000000000000815260040161048a90611133565b60405180910390fd5b60025434146104d7576040517f08c379a00000000000000000000000000000000000000000000000000000000081526004016104ce906110f3565b60405180910390fd5b60008533866040516020016104ee93929190610fe1565b60405160208183030381529060405280519060200120604051602001610514919061101a565b6040516020818303038152906040528051906020012090506001818585856040516000815260200160405260405161054f949392919061107e565b6020604051602081039080840390855afa158015610571573d6000803e3d6000fd5b5050506020604051035173ffffffffffffffffffffffffffffffffffffffff16600160009054906101000a900473ffffffffffffffffffffffffffffffffffffffff1673ffffffffffffffffffffffffffffffffffffffff161461060a576040517f08c379a000000000000000000000000000000000000000000000000000000000815260040161060190611113565b60405180910390fd5b600060f81b8560006020811061061c57fe5b1a60f81b7effffffffffffffffffffffffffffffffffffffffffffffffffffffffffffff19161461072357604051806040016040528086815260200160011515815250600360003373ffffffffffffffffffffffffffffffffffffffff1673ffffffffffffffffffffffffffffffffffffffff168152602001908152602001600020876040516106ac9190610fca565b90815260200160405180910390206000820151816000015560208201518160010160006101000a81548160ff0219169083151502179055509050507f8cea2efca44cb59d17e04aff392f609d0d550d2e9f0a1e250132c2015051a70433878760405161071a93929190611040565b60405180910390a15b505050505050565b6040518060600160405280828152602001600081526020013373ffffffffffffffffffffffffffffffffffffffff1681525060008360405161076d9190610fca565b9081526020016040518091039020600082015181600001556020820151816001015560408201518160020160006101000a81548173ffffffffffffffffffffffffffffffffffffffff021916908373ffffffffffffffffffffffffffffffffffffffff1602179055509050507f174406307f5de2519d057dc26c7b30839e1f184cf63e8ea22ad302df6df800f9823360405161080a9291906110c3565b60405180910390a15050565b61081e610ab1565b60008260405161082e9190610fca565b908152602001604051809103902060405180606001604052908160008201548152602001600182015481526020016002820160009054906101000a900473ffffffffffffffffffffffffffffffffffffffff1673ffffffffffffffffffffffffffffffffffffffff1673ffffffffffffffffffffffffffffffffffffffff16815250509050919050565b6000600254905090565b600160009054906101000a900473ffffffffffffffffffffffffffffffffffffffff1673ffffffffffffffffffffffffffffffffffffffff163373ffffffffffffffffffffffffffffffffffffffff1614610952576040517f08c379a000000000000000000000000000000000000000000000000000000000815260040161094990611153565b60405180910390fd5b600160009054906101000a900473ffffffffffffffffffffffffffffffffffffffff1673ffffffffffffffffffffffffffffffffffffffff166108fc829081150290604051600060405180830381858888f193505050501580156109ba573d6000803e3d6000fd5b5050565b600160009054906101000a900473ffffffffffffffffffffffffffffffffffffffff1673ffffffffffffffffffffffffffffffffffffffff163373ffffffffffffffffffffffffffffffffffffffff1614610a4e576040517f08c379a0000000000000000000000000000000000000000000000000000000008152600401610a4590611153565b60405180910390fd5b80600160006101000a81548173ffffffffffffffffffffffffffffffffffffffff021916908373ffffffffffffffffffffffffffffffffffffffff16021790555050565b6040518060400160405280600080191681526020016000151581525090565b60405180606001604052806000801916815260200160008152602001600073ffffffffffffffffffffffffffffffffffffffff1681525090565b600081359050610afa81611379565b92915050565b600081359050610b0f81611390565b92915050565b600082601f830112610b2657600080fd5b8135610b39610b34826111f1565b6111c4565b91508082526020830160208301858383011115610b5557600080fd5b610b608382846112eb565b50505092915050565b600081359050610b78816113a7565b92915050565b600081359050610b8d816113be565b92915050565b600060208284031215610ba557600080fd5b6000610bb384828501610aeb565b91505092915050565b600060208284031215610bce57600080fd5b600082013567ffffffffffffffff811115610be857600080fd5b610bf484828501610b15565b91505092915050565b60008060408385031215610c1057600080fd5b600083013567ffffffffffffffff811115610c2a57600080fd5b610c3685828601610b15565b9250506020610c4785828601610b00565b9150509250929050565b600080600080600060a08688031215610c6957600080fd5b600086013567ffffffffffffffff811115610c8357600080fd5b610c8f88828901610b15565b9550506020610ca088828901610b00565b9450506040610cb188828901610b7e565b9350506060610cc288828901610b00565b9250506080610cd388828901610b00565b9150509295509295909350565b600060208284031215610cf257600080fd5b6000610d0084828501610b69565b91505092915050565b610d12816112b5565b82525050565b610d29610d2482611256565b61132d565b82525050565b610d3881611244565b82525050565b610d4781611268565b82525050565b610d5681611274565b82525050565b610d6581611274565b82525050565b610d7c610d7782611274565b61133f565b82525050565b6000610d8d8261121d565b610d978185611228565b9350610da78185602086016112fa565b610db08161135b565b840191505092915050565b6000610dc68261121d565b610dd08185611239565b9350610de08185602086016112fa565b80840191505092915050565b6000610df9601c83611239565b91507f19457468657265756d205369676e6564204d6573736167653a0a3332000000006000830152601c82019050919050565b6000610e39601683611228565b91507f496e737566666963656e742066756e642073656e7421000000000000000000006000830152602082019050919050565b6000610e79601283611228565b91507f496e76616c6964207369676e61747572652100000000000000000000000000006000830152602082019050919050565b6000610eb9601683611228565b91507f4d6564616c20616c726561647920636c61696d656421000000000000000000006000830152602082019050919050565b6000610ef9600e83611228565b91507f4e6f7420617574686f72697a65640000000000000000000000000000000000006000830152602082019050919050565b604082016000820151610f426000850182610d4d565b506020820151610f556020850182610d3e565b50505050565b606082016000820151610f716000850182610d4d565b506020820151610f846020850182610f9d565b506040820151610f976040850182610d2f565b50505050565b610fa68161129e565b82525050565b610fb58161129e565b82525050565b610fc4816112a8565b82525050565b6000610fd68284610dbb565b915081905092915050565b6000610fed8286610dbb565b9150610ff98285610d18565b6014820191506110098284610d6b565b602082019150819050949350505050565b600061102582610dec565b91506110318284610d6b565b60208201915081905092915050565b60006060820190506110556000830186610d09565b81810360208301526110678185610d82565b90506110766040830184610d5c565b949350505050565b60006080820190506110936000830187610d5c565b6110a06020830186610fbb565b6110ad6040830185610d5c565b6110ba6060830184610d5c565b95945050505050565b600060408201905081810360008301526110dd8185610d82565b90506110ec6020830184610d09565b9392505050565b6000602082019050818103600083015261110c81610e2c565b9050919050565b6000602082019050818103600083015261112c81610e6c565b9050919050565b6000602082019050818103600083015261114c81610eac565b9050919050565b6000602082019050818103600083015261116c81610eec565b9050919050565b60006040820190506111886000830184610f2c565b92915050565b60006060820190506111a36000830184610f5b565b92915050565b60006020820190506111be6000830184610fac565b92915050565b6000604051905081810181811067ffffffffffffffff821117156111e757600080fd5b8060405250919050565b600067ffffffffffffffff82111561120857600080fd5b601f19601f8301169050602081019050919050565b600081519050919050565b600082825260208201905092915050565b600081905092915050565b600061124f8261127e565b9050919050565b60006112618261127e565b9050919050565b60008115159050919050565b6000819050919050565b600073ffffffffffffffffffffffffffffffffffffffff82169050919050565b6000819050919050565b600060ff82169050919050565b60006112c0826112c7565b9050919050565b60006112d2826112d9565b9050919050565b60006112e48261127e565b9050919050565b82818337600083830152505050565b60005b838110156113185780820151818401526020810190506112fd565b83811115611327576000848401525b50505050565b600061133882611349565b9050919050565b6000819050919050565b60006113548261136c565b9050919050565b6000601f19601f8301169050919050565b60008160601b9050919050565b61138281611256565b811461138d57600080fd5b50565b61139981611274565b81146113a457600080fd5b50565b6113b08161129e565b81146113bb57600080fd5b50565b6113c7816112a8565b81146113d257600080fd5b5056fea365627a7a723158207e144c7332830e1ba751e7b1d2b6ebcf951177ed6c1cb9abd9ed7019aea4d25c6c6578706572696d656e74616cf564736f6c63430005100040",
  "source": "//SPDX-License-Identifier: MIT\npragma solidity >= 0.5.0 < 0.8.0;\npragma experimental ABIEncoderV2;\n\ncontract Finisher {\n  struct MedalOwned { // structure to store medal relation to wallet with metadata\n    // uint medalid; // medal position in medalhashes and id off chain\n    // string resultid; // result id off chain\n    bytes32 result; // result value\n    bool isSet; // helper to check empty struct\n    // bytes32 checkhash; // result hash\n  }\n\n  struct Medal {\n    bytes32 checkhash; // keccak256 hash of the medal data stored offchain\n    // string offchainid; // offchain id of medal\n    // uint count; // how many medals are available\n    uint distributed; // number of distributed medals\n    address owner; // owner address\n  }\n\n  // struct OracleRequest {\n  //  address sender; // the message sender\n  //  string offchainId;// offchainId\n  // }\n\n  // event emitted on medal creation\n  event MedalCreated(string offchainid, address owner);\n\n  //event emitted on medal verification\n  event MedalVerified(address owner, string offchainid, bytes32 result);\n\n  mapping(string => Medal) medals; // registered medals mapped to offchainid\n  address payable private owner; // contract owner address\n  uint256 private medalcost; // medal cost\n  // bytes32 private jobId = \"576a17f61fd9498198f7754d2b1b3f58\"; // chainlink job id\n  // address private oracle = 0x4a3FBbB385b5eFEB4BC84a25AaADcD644Bd09721; // chainlink oracle contract address\n  // uint256 private oraclecost = 1; // oracle calling cost (in LINK)\n\n  mapping(address => mapping(string => MedalOwned)) finishers; // mapping the medals to user address\n\n  // mapping(bytes32 => OracleRequest) requestmap; // chainlink request id mapped to requests\n\n  /*constructor(address _link) public {\n    // Set the address for the LINK token for the network.\n    if(_link == address(0)) {\n      // Useful for deploying to public networks.\n      setPublicChainlinkToken();\n    } else {\n      // Useful if you're deploying to a local network.\n      setChainlinkToken(_link);\n    }\n    owner = msg.sender;\n    medalcost = 2 finney;\n  }*/\n  constructor() public {\n  //    setPublicChainlinkToken();\n      owner = msg.sender;\n      medalcost = 2 finney;\n  }\n\n  function setMedalCost(uint256 _medalcost) public{\n    require(msg.sender == owner, \"Not authorized\");\n    medalcost = _medalcost;\n  }\n\n  function getMedalCost() public view returns(uint256){\n    return medalcost;\n  }\n\n  // function setJobId(bytes32 _jobId) public{\n  //  require(msg.sender == owner, \"Not authorized\");\n  //  jobId = _jobId;\n  // }\n\n  // function getJobId() public view returns(bytes32){\n  //  require(msg.sender == owner, \"Not authorized\");\n  //  return jobId;\n  // }\n\n  // function setOracle(address _oracle) public{\n  //  require(msg.sender == owner, \"Not authorized\");\n  //  oracle = _oracle;\n  // }\n\n  // function getOracle() public view returns(address){\n  //  require(msg.sender == owner, \"Not authorized\");\n  //  return oracle;\n  // }\n\n  // function setOraclecost(uint256 _oraclecost) public{\n  //  require(msg.sender == owner, \"Not authorized\");\n  //  oraclecost = _oraclecost;\n  // }\n\n  // function getOraclecost() public view returns(uint256){\n  //  require(msg.sender == owner, \"Not authorized\");\n  //  return oraclecost;\n  // }\n\n  function createMedal(string memory _offchainid, bytes32 _checkhash) public{\n    // medals.push(Medal(_checkhash,_offchainid, 0, msg.sender));\n    medals[_offchainid] = Medal(_checkhash, 0, msg.sender);\n    emit MedalCreated(_offchainid, msg.sender); // medals.length-1);\n  }\n\n  function getMedal(string memory _offchainid) public view returns(Medal memory){\n    // require(_medalid < medals.length, \"Invalid index specified\");\n    return medals[_offchainid];\n  }\n\n  function getResultForMedal(string memory _offchainid) public view returns(MedalOwned memory){\n    return finishers[msg.sender][_offchainid];\n  }\n\n  // function fulfillClaim(bytes32 _requestId, bytes32 _result) public\n  //  recordChainlinkFulfillment(_requestId){\n  //  OracleRequest memory req = requestmap[_requestId];\n  //  if(_result[0] != 0){\n  //    finishers[req.sender][req.offchainId] = MedalOwned(_result, true);\n  //  }\n  //  emit MedalVerified(req.sender, req.offchainId, _result);\n  //  delete requestmap[_requestId];\n  // }\n\n  // function claimMedal(string memory _offchainid, string memory _endpoint) public payable{\n  //  require(!finishers[msg.sender][_offchainid].isSet, \"Medal already claimed!\");\n  //  require(msg.value == medalcost, \"Insufficent fund sent!\");\n  //  Chainlink.Request memory req = buildChainlinkRequest(jobId, address(this), this.fulfillClaim.selector);\n  //  req.add(\"get\", _endpoint);\n  //  req.add(\"path\", \"result\");\n  //  bytes32 requestId = sendChainlinkRequestTo(oracle, req, oraclecost * LINK);\n  //  requestmap[requestId] = OracleRequest(msg.sender, _offchainid);\n  // }\n\n  function claimMedal(string memory _offchainid, bytes32 _result, uint8 v, bytes32 r, bytes32 s) public payable{\n   require(!finishers[msg.sender][_offchainid].isSet, \"Medal already claimed!\");\n   require(msg.value == medalcost, \"Insufficent fund sent!\");\n   bytes32 h = keccak256(abi.encodePacked(\"\\x19Ethereum Signed Message:\\n32\", keccak256(abi.encodePacked(_offchainid, msg.sender, _result))));\n   require(owner == ecrecover(h, v, r, s), \"Invalid signature!\");\n\n    if(_result[0] != 0){\n      finishers[msg.sender][_offchainid] = MedalOwned(_result, true);\n      emit MedalVerified(msg.sender, _offchainid, _result);\n    }\n  }\n\n  // withdrawLink allows the owner to withdraw any extra LINK on the contract\n  // function withdrawLink()\n  //  public\n  // {\n  //  require(msg.sender == owner, \"Not authorized\");\n  //  LinkTokenInterface link = LinkTokenInterface(chainlinkTokenAddress());\n  //  require(link.transfer(msg.sender, link.balanceOf(address(this))), \"Unable to transfer\");\n  // }\n  function withdrawEth(uint256 withdraw) public {\n    require(msg.sender == owner, \"Not authorized\");\n    owner.transfer(withdraw);\n  }\n\n  function getBalance() public view returns (uint256) {\n    require(msg.sender == owner, \"Not authorized\");\n    return address(this).balance;\n  }\n\n  function transferOwnership(address payable newOwner) public {\n    require(msg.sender == owner, \"Not authorized\");\n    owner = newOwner;\n  }\n\n}\n",
  "sourcePath": "C:\\project\\finisher\\contracts\\Finisher.sol",
  "compiler": {
    "name": "solc",
    "version": "0.5.16+commit.9c3226ce.Emscripten.clang"
  },
  "schemaVersion": "3.2.0",
  "updatedAt": "2020-08-20T00:48:03.489Z",
  "devdoc": {
    "methods": {}
  },
  "userdoc": {
    "methods": {}
  }
}