{
  "contractName": "Finisher",
  "abi": [
    {
      "inputs": [],
      "payable": false,
      "stateMutability": "nonpayable",
      "type": "constructor"
    },
    {
      "anonymous": false,
      "inputs": [
        {
          "indexed": true,
          "internalType": "bytes32",
          "name": "id",
          "type": "bytes32"
        }
      ],
      "name": "ChainlinkCancelled",
      "type": "event"
    },
    {
      "anonymous": false,
      "inputs": [
        {
          "indexed": true,
          "internalType": "bytes32",
          "name": "id",
          "type": "bytes32"
        }
      ],
      "name": "ChainlinkFulfilled",
      "type": "event"
    },
    {
      "anonymous": false,
      "inputs": [
        {
          "indexed": true,
          "internalType": "bytes32",
          "name": "id",
          "type": "bytes32"
        }
      ],
      "name": "ChainlinkRequested",
      "type": "event"
    },
    {
      "anonymous": false,
      "inputs": [
        {
          "indexed": false,
          "internalType": "string",
          "name": "offchainid",
          "type": "string"
        },
        {
          "indexed": false,
          "internalType": "address",
          "name": "owner",
          "type": "address"
        }
      ],
      "name": "MedalCreated",
      "type": "event"
    },
    {
      "anonymous": false,
      "inputs": [
        {
          "indexed": false,
          "internalType": "address",
          "name": "owner",
          "type": "address"
        },
        {
          "indexed": false,
          "internalType": "string",
          "name": "offchainid",
          "type": "string"
        },
        {
          "indexed": false,
          "internalType": "bytes32",
          "name": "result",
          "type": "bytes32"
        }
      ],
      "name": "MedalVerified",
      "type": "event"
    },
    {
      "constant": false,
      "inputs": [
        {
          "internalType": "uint256",
          "name": "_medalcost",
          "type": "uint256"
        }
      ],
      "name": "setMedalCost",
      "outputs": [],
      "payable": false,
      "stateMutability": "nonpayable",
      "type": "function"
    },
    {
      "constant": true,
      "inputs": [],
      "name": "getMedalCost",
      "outputs": [
        {
          "internalType": "uint256",
          "name": "",
          "type": "uint256"
        }
      ],
      "payable": false,
      "stateMutability": "view",
      "type": "function"
    },
    {
      "constant": false,
      "inputs": [
        {
          "internalType": "bytes32",
          "name": "_jobId",
          "type": "bytes32"
        }
      ],
      "name": "setJobId",
      "outputs": [],
      "payable": false,
      "stateMutability": "nonpayable",
      "type": "function"
    },
    {
      "constant": true,
      "inputs": [],
      "name": "getJobId",
      "outputs": [
        {
          "internalType": "bytes32",
          "name": "",
          "type": "bytes32"
        }
      ],
      "payable": false,
      "stateMutability": "view",
      "type": "function"
    },
    {
      "constant": false,
      "inputs": [
        {
          "internalType": "address",
          "name": "_oracle",
          "type": "address"
        }
      ],
      "name": "setOracle",
      "outputs": [],
      "payable": false,
      "stateMutability": "nonpayable",
      "type": "function"
    },
    {
      "constant": true,
      "inputs": [],
      "name": "getOracle",
      "outputs": [
        {
          "internalType": "address",
          "name": "",
          "type": "address"
        }
      ],
      "payable": false,
      "stateMutability": "view",
      "type": "function"
    },
    {
      "constant": false,
      "inputs": [
        {
          "internalType": "uint256",
          "name": "_oraclecost",
          "type": "uint256"
        }
      ],
      "name": "setOraclecost",
      "outputs": [],
      "payable": false,
      "stateMutability": "nonpayable",
      "type": "function"
    },
    {
      "constant": true,
      "inputs": [],
      "name": "getOraclecost",
      "outputs": [
        {
          "internalType": "uint256",
          "name": "",
          "type": "uint256"
        }
      ],
      "payable": false,
      "stateMutability": "view",
      "type": "function"
    },
    {
      "constant": false,
      "inputs": [
        {
          "internalType": "string",
          "name": "_offchainid",
          "type": "string"
        },
        {
          "internalType": "bytes32",
          "name": "_checkhash",
          "type": "bytes32"
        }
      ],
      "name": "createMedal",
      "outputs": [],
      "payable": false,
      "stateMutability": "nonpayable",
      "type": "function"
    },
    {
      "constant": true,
      "inputs": [
        {
          "internalType": "string",
          "name": "_offchainid",
          "type": "string"
        }
      ],
      "name": "getMedal",
      "outputs": [
        {
          "components": [
            {
              "internalType": "bytes32",
              "name": "checkhash",
              "type": "bytes32"
            },
            {
              "internalType": "uint256",
              "name": "distributed",
              "type": "uint256"
            },
            {
              "internalType": "address",
              "name": "owner",
              "type": "address"
            }
          ],
          "internalType": "struct Finisher.Medal",
          "name": "",
          "type": "tuple"
        }
      ],
      "payable": false,
      "stateMutability": "view",
      "type": "function"
    },
    {
      "constant": true,
      "inputs": [
        {
          "internalType": "string",
          "name": "_offchainid",
          "type": "string"
        }
      ],
      "name": "getResultForMedal",
      "outputs": [
        {
          "components": [
            {
              "internalType": "bytes32",
              "name": "result",
              "type": "bytes32"
            },
            {
              "internalType": "bool",
              "name": "isSet",
              "type": "bool"
            }
          ],
          "internalType": "struct Finisher.MedalOwned",
          "name": "",
          "type": "tuple"
        }
      ],
      "payable": false,
      "stateMutability": "view",
      "type": "function"
    },
    {
      "constant": false,
      "inputs": [
        {
          "internalType": "bytes32",
          "name": "_requestId",
          "type": "bytes32"
        },
        {
          "internalType": "bytes32",
          "name": "_result",
          "type": "bytes32"
        }
      ],
      "name": "fulfillClaim",
      "outputs": [],
      "payable": false,
      "stateMutability": "nonpayable",
      "type": "function"
    },
    {
      "constant": false,
      "inputs": [
        {
          "internalType": "string",
          "name": "_offchainid",
          "type": "string"
        },
        {
          "internalType": "string",
          "name": "_endpoint",
          "type": "string"
        }
      ],
      "name": "claimMedal",
      "outputs": [],
      "payable": true,
      "stateMutability": "payable",
      "type": "function"
    },
    {
      "constant": false,
      "inputs": [],
      "name": "withdrawLink",
      "outputs": [],
      "payable": false,
      "stateMutability": "nonpayable",
      "type": "function"
    }
  ],
  "bytecode": "0x608060405260016004557f3537366131376636316664393439383139386637373534643262316233663538600955734a3fbbb385b5efeb4bc84a25aaadcd644bd09721600a60006101000a81548173ffffffffffffffffffffffffffffffffffffffff021916908373ffffffffffffffffffffffffffffffffffffffff1602179055506001600b553480156200009457600080fd5b50620000a5620000fa60201b60201c565b33600760006101000a81548173ffffffffffffffffffffffffffffffffffffffff021916908373ffffffffffffffffffffffffffffffffffffffff16021790555066071afd498d000060088190555062000277565b620001a073c89bd4e1632d3a43cb03aaad5262cbe4038bc57173ffffffffffffffffffffffffffffffffffffffff166338cc48316040518163ffffffff1660e01b815260040160206040518083038186803b1580156200015957600080fd5b505afa1580156200016e573d6000803e3d6000fd5b505050506040513d601f19601f82011682018060405250620001949190810190620001fd565b620001a260201b60201c565b565b80600260006101000a81548173ffffffffffffffffffffffffffffffffffffffff021916908373ffffffffffffffffffffffffffffffffffffffff16021790555050565b600081519050620001f7816200025d565b92915050565b6000602082840312156200021057600080fd5b60006200022084828501620001e6565b91505092915050565b600062000236826200023d565b9050919050565b600073ffffffffffffffffffffffffffffffffffffffff82169050919050565b620002688162000229565b81146200027457600080fd5b50565b61271480620002876000396000f3fe6080604052600436106100dd5760003560e01c8063833b1fce1161007f5780638dc654a2116100595780638dc654a21461029b578063ad48414d146102b2578063b02f7fe0146102db578063b3af71cf14610306576100dd565b8063833b1fce1461020857806388238780146102335780638a50c7f514610270576100dd565b80633e6ef041116100bb5780633e6ef04114610164578063508954f81461018d5780637553cd81146101b65780637adbf973146101df576100dd565b8063039b2d8c146100e2578063115fc3bf1461011f57806333b84e3914610148575b600080fd5b3480156100ee57600080fd5b5061010960048036036101049190810190611c97565b610331565b604051610116919061240c565b60405180910390f35b34801561012b57600080fd5b5061014660048036036101419190810190611d98565b6103cb565b005b610162600480360361015d9190810190611d2c565b610465565b005b34801561017057600080fd5b5061018b60048036036101869190810190611d98565b610634565b005b34801561019957600080fd5b506101b460048036036101af9190810190611c32565b6106ce565b005b3480156101c257600080fd5b506101dd60048036036101d89190810190611cd8565b610768565b005b3480156101eb57600080fd5b5061020660048036036102019190810190611be0565b610853565b005b34801561021457600080fd5b5061021d610927565b60405161022a91906121fc565b60405180910390f35b34801561023f57600080fd5b5061025a60048036036102559190810190611c97565b6109e1565b6040516102679190612427565b60405180910390f35b34801561027c57600080fd5b50610285610a83565b6040516102929190612442565b60405180910390f35b3480156102a757600080fd5b506102b0610a8d565b005b3480156102be57600080fd5b506102d960048036036102d49190810190611c5b565b610c80565b005b3480156102e757600080fd5b506102f0611021565b6040516102fd9190612341565b60405180910390f35b34801561031257600080fd5b5061031b6110bb565b6040516103289190612442565b60405180910390f35b61033961190c565b600c60003373ffffffffffffffffffffffffffffffffffffffff1673ffffffffffffffffffffffffffffffffffffffff1681526020019081526020016000208260405161038691906121e5565b9081526020016040518091039020604051806040016040529081600082015481526020016001820160009054906101000a900460ff1615151515815250509050919050565b600760009054906101000a900473ffffffffffffffffffffffffffffffffffffffff1673ffffffffffffffffffffffffffffffffffffffff163373ffffffffffffffffffffffffffffffffffffffff161461045b576040517f08c379a0000000000000000000000000000000000000000000000000000000008152600401610452906123ec565b60405180910390fd5b8060088190555050565b61046d61192b565b6104816009543063ad48414d60e01b611155565b90506104cd6040518060400160405280600381526020017f676574000000000000000000000000000000000000000000000000000000000081525083836111869092919063ffffffff16565b61054c6040518060400160405280600481526020017f70617468000000000000000000000000000000000000000000000000000000008152506040518060400160405280600681526020017f726573756c740000000000000000000000000000000000000000000000000000815250836111869092919063ffffffff16565b6000610587600a60009054906101000a900473ffffffffffffffffffffffffffffffffffffffff1683670de0b6b3a7640000600b54026111b9565b905060405180604001604052803373ffffffffffffffffffffffffffffffffffffffff16815260200185815250600d600083815260200190815260200160002060008201518160000160006101000a81548173ffffffffffffffffffffffffffffffffffffffff021916908373ffffffffffffffffffffffffffffffffffffffff160217905550602082015181600101908051906020019061062a929190611998565b5090505050505050565b600760009054906101000a900473ffffffffffffffffffffffffffffffffffffffff1673ffffffffffffffffffffffffffffffffffffffff163373ffffffffffffffffffffffffffffffffffffffff16146106c4576040517f08c379a00000000000000000000000000000000000000000000000000000000081526004016106bb906123ec565b60405180910390fd5b80600b8190555050565b600760009054906101000a900473ffffffffffffffffffffffffffffffffffffffff1673ffffffffffffffffffffffffffffffffffffffff163373ffffffffffffffffffffffffffffffffffffffff161461075e576040517f08c379a0000000000000000000000000000000000000000000000000000000008152600401610755906123ec565b60405180910390fd5b8060098190555050565b6040518060600160405280828152602001600081526020013373ffffffffffffffffffffffffffffffffffffffff168152506006836040516107aa91906121e5565b9081526020016040518091039020600082015181600001556020820151816001015560408201518160020160006101000a81548173ffffffffffffffffffffffffffffffffffffffff021916908373ffffffffffffffffffffffffffffffffffffffff1602179055509050507f174406307f5de2519d057dc26c7b30839e1f184cf63e8ea22ad302df6df800f9823360405161084792919061235c565b60405180910390a15050565b600760009054906101000a900473ffffffffffffffffffffffffffffffffffffffff1673ffffffffffffffffffffffffffffffffffffffff163373ffffffffffffffffffffffffffffffffffffffff16146108e3576040517f08c379a00000000000000000000000000000000000000000000000000000000081526004016108da906123ec565b60405180910390fd5b80600a60006101000a81548173ffffffffffffffffffffffffffffffffffffffff021916908373ffffffffffffffffffffffffffffffffffffffff16021790555050565b6000600760009054906101000a900473ffffffffffffffffffffffffffffffffffffffff1673ffffffffffffffffffffffffffffffffffffffff163373ffffffffffffffffffffffffffffffffffffffff16146109b9576040517f08c379a00000000000000000000000000000000000000000000000000000000081526004016109b0906123ec565b60405180910390fd5b600a60009054906101000a900473ffffffffffffffffffffffffffffffffffffffff16905090565b6109e9611a18565b6006826040516109f991906121e5565b908152602001604051809103902060405180606001604052908160008201548152602001600182015481526020016002820160009054906101000a900473ffffffffffffffffffffffffffffffffffffffff1673ffffffffffffffffffffffffffffffffffffffff1673ffffffffffffffffffffffffffffffffffffffff16815250509050919050565b6000600854905090565b600760009054906101000a900473ffffffffffffffffffffffffffffffffffffffff1673ffffffffffffffffffffffffffffffffffffffff163373ffffffffffffffffffffffffffffffffffffffff1614610b1d576040517f08c379a0000000000000000000000000000000000000000000000000000000008152600401610b14906123ec565b60405180910390fd5b6000610b27611386565b90508073ffffffffffffffffffffffffffffffffffffffff1663a9059cbb338373ffffffffffffffffffffffffffffffffffffffff166370a08231306040518263ffffffff1660e01b8152600401610b7f91906121fc565b60206040518083038186803b158015610b9757600080fd5b505afa158015610bab573d6000803e3d6000fd5b505050506040513d601f19601f82011682018060405250610bcf9190810190611dc1565b6040518363ffffffff1660e01b8152600401610bec929190612217565b602060405180830381600087803b158015610c0657600080fd5b505af1158015610c1a573d6000803e3d6000fd5b505050506040513d601f19601f82011682018060405250610c3e9190810190611c09565b610c7d576040517f08c379a0000000000000000000000000000000000000000000000000000000008152600401610c74906123ac565b60405180910390fd5b50565b816005600082815260200190815260200160002060009054906101000a900473ffffffffffffffffffffffffffffffffffffffff1673ffffffffffffffffffffffffffffffffffffffff163373ffffffffffffffffffffffffffffffffffffffff1614610d22576040517f08c379a0000000000000000000000000000000000000000000000000000000008152600401610d19906123cc565b60405180910390fd5b6005600082815260200190815260200160002060006101000a81549073ffffffffffffffffffffffffffffffffffffffff0219169055807f7cc135e0cebb02c3480ae5d74d377283180a2601f8f644edf7987b009316c63a60405160405180910390a2610d8d611a52565b600d60008581526020019081526020016000206040518060400160405290816000820160009054906101000a900473ffffffffffffffffffffffffffffffffffffffff1673ffffffffffffffffffffffffffffffffffffffff1673ffffffffffffffffffffffffffffffffffffffff168152602001600182018054600181600116156101000203166002900480601f016020809104026020016040519081016040528092919081815260200182805460018160011615610100020316600290048015610e9a5780601f10610e6f57610100808354040283529160200191610e9a565b820191906000526020600020905b815481529060010190602001808311610e7d57829003601f168201915b5050505050815250509050600060f81b83600060208110610eb757fe5b1a60f81b7effffffffffffffffffffffffffffffffffffffffffffffffffffffffffffff191614610f8b57604051806040016040528084815260200160011515815250600c6000836000015173ffffffffffffffffffffffffffffffffffffffff1673ffffffffffffffffffffffffffffffffffffffff1681526020019081526020016000208260200151604051610f4f91906121ce565b90815260200160405180910390206000820151816000015560208201518160010160006101000a81548160ff0219169083151502179055509050505b7f8cea2efca44cb59d17e04aff392f609d0d550d2e9f0a1e250132c2015051a7048160000151826020015185604051610fc693929190612240565b60405180910390a1600d6000858152602001908152602001600020600080820160006101000a81549073ffffffffffffffffffffffffffffffffffffffff02191690556001820160006110199190611a82565b505050505050565b6000600760009054906101000a900473ffffffffffffffffffffffffffffffffffffffff1673ffffffffffffffffffffffffffffffffffffffff163373ffffffffffffffffffffffffffffffffffffffff16146110b3576040517f08c379a00000000000000000000000000000000000000000000000000000000081526004016110aa906123ec565b60405180910390fd5b600954905090565b6000600760009054906101000a900473ffffffffffffffffffffffffffffffffffffffff1673ffffffffffffffffffffffffffffffffffffffff163373ffffffffffffffffffffffffffffffffffffffff161461114d576040517f08c379a0000000000000000000000000000000000000000000000000000000008152600401611144906123ec565b60405180910390fd5b600b54905090565b61115d61192b565b61116561192b565b61117c858585846113b0909392919063ffffffff16565b9150509392505050565b61119d82846080015161146090919063ffffffff16565b6111b481846080015161146090919063ffffffff16565b505050565b6000306004546040516020016111d09291906121a2565b604051602081830303815290604052805190602001209050600454836060018181525050836005600083815260200190815260200160002060006101000a81548173ffffffffffffffffffffffffffffffffffffffff021916908373ffffffffffffffffffffffffffffffffffffffff160217905550807fb5e6e01e79f91267dc17b4e6314d5d4d03593d2ceee0fbb452b750bd70ea5af960405160405180910390a2600260009054906101000a900473ffffffffffffffffffffffffffffffffffffffff1673ffffffffffffffffffffffffffffffffffffffff16634000aea085846112bc87611485565b6040518463ffffffff1660e01b81526004016112da93929190612303565b602060405180830381600087803b1580156112f457600080fd5b505af1158015611308573d6000803e3d6000fd5b505050506040513d601f19601f8201168201806040525061132c9190810190611c09565b61136b576040517f08c379a00000000000000000000000000000000000000000000000000000000081526004016113629061238c565b60405180910390fd5b60016004600082825401925050819055508090509392505050565b6000600260009054906101000a900473ffffffffffffffffffffffffffffffffffffffff16905090565b6113b861192b565b6113c88560800151610100611567565b508385600001818152505082856020019073ffffffffffffffffffffffffffffffffffffffff16908173ffffffffffffffffffffffffffffffffffffffff16815250508185604001907bffffffffffffffffffffffffffffffffffffffffffffffffffffffff191690817bffffffffffffffffffffffffffffffffffffffffffffffffffffffff191681525050849050949350505050565b61146d82600383516115bb565b611480818361170090919063ffffffff16565b505050565b6060600360009054906101000a900473ffffffffffffffffffffffffffffffffffffffff1673ffffffffffffffffffffffffffffffffffffffff166340429946905060e01b6000808460000151856020015186604001518760600151600189608001516000015160405160240161150398979695949392919061227e565b604051602081830303815290604052907bffffffffffffffffffffffffffffffffffffffffffffffffffffffff19166020820180517bffffffffffffffffffffffffffffffffffffffffffffffffffffffff83818316178352505050509050919050565b61156f611aca565b60006020838161157b57fe5b0614611594576020828161158b57fe5b06602003820191505b81836020018181525050604051808452600081528281016020016040525082905092915050565b601781116115e8576115e28160058460ff16901b60ff16178461172290919063ffffffff16565b506116fb565b60ff811161162a5761160d601860058460ff16901b178461172290919063ffffffff16565b50611624816001856117429092919063ffffffff16565b506116fa565b61ffff811161166d57611650601960058460ff16901b178461172290919063ffffffff16565b50611667816002856117429092919063ffffffff16565b506116f9565b63ffffffff81116116b257611695601a60058460ff16901b178461172290919063ffffffff16565b506116ac816004856117429092919063ffffffff16565b506116f8565b67ffffffffffffffff81116116f7576116de601b60058460ff16901b178461172290919063ffffffff16565b506116f5816008856117429092919063ffffffff16565b505b5b5b5b5b505050565b611708611aca565b61171a83846000015151848551611764565b905092915050565b61172a611aca565b61173a838460000151518461181d565b905092915050565b61174a611aca565b61175b84856000015151858561186b565b90509392505050565b61176c611aca565b825182111561177a57600080fd5b846020015182850111156117a5576117a485600261179e88602001518887016118cc565b026118e8565b5b6000808651805187602083010193508088870111156117c45787860182525b60208701925050505b602084106117f057805182526020820191506020810190506020840393506117cd565b60006001856020036101000a03905080198251168184511681811785525050879350505050949350505050565b611825611aca565b83602001518310611842576118418460028660200151026118e8565b5b835180516020858301018481538186141561185e576001820183525b5050508390509392505050565b611873611aca565b8460200151848301111561189157611890856002868501026118e8565b5b60006001836101000a03905085518386820101858319825116178152815185880111156118be5784870182525b505085915050949350505050565b6000818311156118de578290506118e2565b8190505b92915050565b6060826000015190506118fb8383611567565b506119068382611700565b50505050565b6040518060400160405280600080191681526020016000151581525090565b6040518060a0016040528060008019168152602001600073ffffffffffffffffffffffffffffffffffffffff16815260200160007bffffffffffffffffffffffffffffffffffffffffffffffffffffffff1916815260200160008152602001611992611ae4565b81525090565b828054600181600116156101000203166002900490600052602060002090601f016020900481019282601f106119d957805160ff1916838001178555611a07565b82800160010185558215611a07579182015b82811115611a065782518255916020019190600101906119eb565b5b509050611a149190611afe565b5090565b60405180606001604052806000801916815260200160008152602001600073ffffffffffffffffffffffffffffffffffffffff1681525090565b6040518060400160405280600073ffffffffffffffffffffffffffffffffffffffff168152602001606081525090565b50805460018160011615610100020316600290046000825580601f10611aa85750611ac7565b601f016020900490600052602060002090810190611ac69190611afe565b5b50565b604051806040016040528060608152602001600081525090565b604051806040016040528060608152602001600081525090565b611b2091905b80821115611b1c576000816000905550600101611b04565b5090565b90565b600081359050611b3281612675565b92915050565b600081519050611b478161268c565b92915050565b600081359050611b5c816126a3565b92915050565b600082601f830112611b7357600080fd5b8135611b86611b818261248a565b61245d565b91508082526020830160208301858383011115611ba257600080fd5b611bad8382846125e7565b50505092915050565b600081359050611bc5816126ba565b92915050565b600081519050611bda816126ba565b92915050565b600060208284031215611bf257600080fd5b6000611c0084828501611b23565b91505092915050565b600060208284031215611c1b57600080fd5b6000611c2984828501611b38565b91505092915050565b600060208284031215611c4457600080fd5b6000611c5284828501611b4d565b91505092915050565b60008060408385031215611c6e57600080fd5b6000611c7c85828601611b4d565b9250506020611c8d85828601611b4d565b9150509250929050565b600060208284031215611ca957600080fd5b600082013567ffffffffffffffff811115611cc357600080fd5b611ccf84828501611b62565b91505092915050565b60008060408385031215611ceb57600080fd5b600083013567ffffffffffffffff811115611d0557600080fd5b611d1185828601611b62565b9250506020611d2285828601611b4d565b9150509250929050565b60008060408385031215611d3f57600080fd5b600083013567ffffffffffffffff811115611d5957600080fd5b611d6585828601611b62565b925050602083013567ffffffffffffffff811115611d8257600080fd5b611d8e85828601611b62565b9150509250929050565b600060208284031215611daa57600080fd5b6000611db884828501611bb6565b91505092915050565b600060208284031215611dd357600080fd5b6000611de184828501611bcb565b91505092915050565b611df38161258d565b82525050565b611e028161250f565b82525050565b611e118161250f565b82525050565b611e2081612521565b82525050565b611e2f8161252d565b82525050565b611e3e8161252d565b82525050565b611e4d81612537565b82525050565b6000611e5e826124c1565b611e6881856124e2565b9350611e788185602086016125f6565b611e8181612657565b840191505092915050565b6000611e97826124b6565b611ea181856124e2565b9350611eb18185602086016125f6565b611eba81612657565b840191505092915050565b611ed6611ed18261259f565b612629565b82525050565b6000611ee7826124d7565b611ef181856124f3565b9350611f018185602086016125f6565b611f0a81612657565b840191505092915050565b6000611f20826124d7565b611f2a8185612504565b9350611f3a8185602086016125f6565b80840191505092915050565b6000611f51826124cc565b611f5b81856124f3565b9350611f6b8185602086016125f6565b611f7481612657565b840191505092915050565b6000611f8a826124cc565b611f948185612504565b9350611fa48185602086016125f6565b80840191505092915050565b6000611fbd6023836124f3565b91507f756e61626c6520746f207472616e73666572416e6443616c6c20746f206f726160008301527f636c6500000000000000000000000000000000000000000000000000000000006020830152604082019050919050565b60006120236012836124f3565b91507f556e61626c6520746f207472616e7366657200000000000000000000000000006000830152602082019050919050565b60006120636028836124f3565b91507f536f75726365206d75737420626520746865206f7261636c65206f662074686560008301527f20726571756573740000000000000000000000000000000000000000000000006020830152604082019050919050565b60006120c9600e836124f3565b91507f4e6f7420617574686f72697a65640000000000000000000000000000000000006000830152602082019050919050565b6040820160008201516121126000850182611e26565b5060208201516121256020850182611e17565b50505050565b6060820160008201516121416000850182611e26565b506020820151612154602085018261216d565b5060408201516121676040850182611df9565b50505050565b61217681612583565b82525050565b61218581612583565b82525050565b61219c61219782612583565b61264d565b82525050565b60006121ae8285611ec5565b6014820191506121be828461218b565b6020820191508190509392505050565b60006121da8284611f7f565b915081905092915050565b60006121f18284611f15565b915081905092915050565b60006020820190506122116000830184611e08565b92915050565b600060408201905061222c6000830185611dea565b612239602083018461217c565b9392505050565b60006060820190506122556000830186611e08565b81810360208301526122678185611f46565b90506122766040830184611e35565b949350505050565b600061010082019050612294600083018b611e08565b6122a1602083018a61217c565b6122ae6040830189611e35565b6122bb6060830188611e08565b6122c86080830187611e44565b6122d560a083018661217c565b6122e260c083018561217c565b81810360e08301526122f48184611e8c565b90509998505050505050505050565b60006060820190506123186000830186611e08565b612325602083018561217c565b81810360408301526123378184611e53565b9050949350505050565b60006020820190506123566000830184611e35565b92915050565b600060408201905081810360008301526123768185611edc565b90506123856020830184611dea565b9392505050565b600060208201905081810360008301526123a581611fb0565b9050919050565b600060208201905081810360008301526123c581612016565b9050919050565b600060208201905081810360008301526123e581612056565b9050919050565b60006020820190508181036000830152612405816120bc565b9050919050565b600060408201905061242160008301846120fc565b92915050565b600060608201905061243c600083018461212b565b92915050565b6000602082019050612457600083018461217c565b92915050565b6000604051905081810181811067ffffffffffffffff8211171561248057600080fd5b8060405250919050565b600067ffffffffffffffff8211156124a157600080fd5b601f19601f8301169050602081019050919050565b600081519050919050565b600081519050919050565b600081519050919050565b600081519050919050565b600082825260208201905092915050565b600082825260208201905092915050565b600081905092915050565b600061251a82612563565b9050919050565b60008115159050919050565b6000819050919050565b60007fffffffff0000000000000000000000000000000000000000000000000000000082169050919050565b600073ffffffffffffffffffffffffffffffffffffffff82169050919050565b6000819050919050565b6000612598826125c3565b9050919050565b60006125aa826125b1565b9050919050565b60006125bc82612563565b9050919050565b60006125ce826125d5565b9050919050565b60006125e082612563565b9050919050565b82818337600083830152505050565b60005b838110156126145780820151818401526020810190506125f9565b83811115612623576000848401525b50505050565b60006126348261263b565b9050919050565b600061264682612668565b9050919050565b6000819050919050565b6000601f19601f8301169050919050565b60008160601b9050919050565b61267e8161250f565b811461268957600080fd5b50565b61269581612521565b81146126a057600080fd5b50565b6126ac8161252d565b81146126b757600080fd5b50565b6126c381612583565b81146126ce57600080fd5b5056fea365627a7a7231582026051fd97d2b4a51e7b42d8b256b9dd110e47d6c8b06c6f8b3b6fce2095c07666c6578706572696d656e74616cf564736f6c63430005100040",
  "source": "//SPDX-License-Identifier: MIT\npragma solidity >= 0.5.0 < 0.7.0;\npragma experimental ABIEncoderV2;\n\nimport \"@chainlink/contracts/src/v0.5/ChainlinkClient.sol\";\n\ncontract Finisher is ChainlinkClient {\n  struct MedalOwned { // structure to store medal relation to wallet with metadata\n    // uint medalid; // medal position in medalhashes and id off chain\n    // string resultid; // result id off chain\n    bytes32 result; // result value\n    bool isSet; // helper to check empty struct\n    // bytes32 checkhash; // result hash\n  }\n\n  struct Medal {\n    bytes32 checkhash; // keccak256 hash of the medal data stored offchain\n    // string offchainid; // offchain id of medal\n    // uint count; // how many medals are available\n    uint distributed; // number of distributed medals\n    address owner; // owner address\n  }\n\n  struct OracleRequest {\n    address sender; // the message sender\n    string offchainId;// offchainId\n  }\n\n  // event emitted on medal creation\n  event MedalCreated(string offchainid, address owner);\n\n  //event emitted on medal verification\n  event MedalVerified(address owner, string offchainid, bytes32 result);\n\n  mapping(string => Medal) medals; // registered medals mapped to offchainid\n  address payable private owner; // contract owner address\n  uint256 private medalcost; // medal cost\n  bytes32 private jobId = \"576a17f61fd9498198f7754d2b1b3f58\"; // chainlink job id\n  address private oracle = 0x4a3FBbB385b5eFEB4BC84a25AaADcD644Bd09721; // chainlink oracle contract address\n  uint256 private oraclecost = 1; // oracle calling cost (in LINK)\n\n  mapping(address => mapping(string => MedalOwned)) finishers; // mapping the medals to user address\n\n  mapping(bytes32 => OracleRequest) requestmap; // chainlink request id mapped to requests\n\n  /*constructor(address _link) public {\n    // Set the address for the LINK token for the network.\n    if(_link == address(0)) {\n      // Useful for deploying to public networks.\n      setPublicChainlinkToken();\n    } else {\n      // Useful if you're deploying to a local network.\n      setChainlinkToken(_link);\n    }\n    owner = msg.sender;\n    medalcost = 2 finney;\n  }*/\n  constructor() public {\n      setPublicChainlinkToken();\n      owner = msg.sender;\n      medalcost = 2 finney;\n  }\n\n  function setMedalCost(uint256 _medalcost) public{\n    require(msg.sender == owner, \"Not authorized\");\n    medalcost = _medalcost;\n  }\n\n  function getMedalCost() public view returns(uint256){\n    return medalcost;\n  }\n\n  function setJobId(bytes32 _jobId) public{\n    require(msg.sender == owner, \"Not authorized\");\n    jobId = _jobId;\n  }\n\n  function getJobId() public view returns(bytes32){\n    require(msg.sender == owner, \"Not authorized\");\n    return jobId;\n  }\n\n  function setOracle(address _oracle) public{\n    require(msg.sender == owner, \"Not authorized\");\n    oracle = _oracle;\n  }\n\n  function getOracle() public view returns(address){\n    require(msg.sender == owner, \"Not authorized\");\n    return oracle;\n  }\n\n  function setOraclecost(uint256 _oraclecost) public{\n    require(msg.sender == owner, \"Not authorized\");\n    oraclecost = _oraclecost;\n  }\n\n  function getOraclecost() public view returns(uint256){\n    require(msg.sender == owner, \"Not authorized\");\n    return oraclecost;\n  }\n\n  function createMedal(string memory _offchainid, bytes32 _checkhash) public{\n    // medals.push(Medal(_checkhash,_offchainid, 0, msg.sender));\n    medals[_offchainid] = Medal(_checkhash, 0, msg.sender);\n    emit MedalCreated(_offchainid, msg.sender); // medals.length-1);\n  }\n\n  function getMedal(string memory _offchainid) public view returns(Medal memory){\n    // require(_medalid < medals.length, \"Invalid index specified\");\n    return medals[_offchainid];\n  }\n\n  function getResultForMedal(string memory _offchainid) public view returns(MedalOwned memory){\n    return finishers[msg.sender][_offchainid];\n  }\n\n  function fulfillClaim(bytes32 _requestId, bytes32 _result) public\n    recordChainlinkFulfillment(_requestId){\n    OracleRequest memory req = requestmap[_requestId];\n    if(_result[0] != 0){\n      finishers[req.sender][req.offchainId] = MedalOwned(_result, true);\n    }\n    emit MedalVerified(req.sender, req.offchainId, _result);\n    delete requestmap[_requestId];\n  }\n\n  function claimMedal(string memory _offchainid, string memory _endpoint) public payable{\n    //require(!finishers[msg.sender][_offchainid].isSet, \"Medal already claimed!\");\n    //require(msg.value == medalcost, \"Insufficent fund sent!\");\n    Chainlink.Request memory req = buildChainlinkRequest(jobId, address(this), this.fulfillClaim.selector);\n    //bytes(_endpoint);\n    req.add(\"get\", _endpoint);\n    req.add(\"path\", \"result\");\n    //bytes(_offchainid);\n    bytes32 requestId = sendChainlinkRequestTo(oracle, req, oraclecost * LINK);\n    requestmap[requestId] = OracleRequest(msg.sender, _offchainid);\n  }\n\n  // withdrawLink allows the owner to withdraw any extra LINK on the contract\n  function withdrawLink()\n    public\n  {\n    require(msg.sender == owner, \"Not authorized\");\n    LinkTokenInterface link = LinkTokenInterface(chainlinkTokenAddress());\n    require(link.transfer(msg.sender, link.balanceOf(address(this))), \"Unable to transfer\");\n  }\n}\n",
  "sourcePath": "C:\\project\\finisher\\contracts\\Finisher.sol",
  "compiler": {
    "name": "solc",
    "version": "0.5.16+commit.9c3226ce.Emscripten.clang"
  },
  "schemaVersion": "3.2.0",
  "updatedAt": "2020-07-27T20:19:51.234Z",
  "networkType": "ethereum",
  "devdoc": {
    "methods": {}
  },
  "userdoc": {
    "methods": {}
  }
}